:020000040800F2
:10000000980A0020D9000008130F0008110F0008FB
:1000100000000000000000000000000000000000E0
:100020000000000000000000000000005B0F00085E
:100030000000000000000000590F000881100008B7
:10004000EB000008EB000008EB000008EB000008E4
:10005000EB000008EB000008EB000008EB000008D4
:10006000EB000008EB000008EB000008EB000008C4
:10007000EB000008EB000008EB000008EB000008B4
:10008000EB000008EB000008EB000008EB000008A4
:10009000EB000008EB000008EB000008EB00000894
:1000A000EB000008EB000008EB000008EB00000884
:1000B000EB000008D5110008EB000008EB00000879
:1000C0000448854600F0C6FA004800474515000878
:1000D000C046C046980A00200448804704480047AC
:1000E000FEE7FEE7FEE7FEE7FEE7FEE7C9100008D1
:1000F000C100000830B50B46014600202022012433
:1001000009E00D46D5409D4205D31D469540491B4B
:100110002546954040191546521E002DF1DC30BD94
:1001200010B5202A04DB0846203AD040002110BD3B
:100130000B46D340D0402024A21A914008431946D0
:1001400010BDD2B201E00270401C491EFBD27047C4
:100150000022F6E710B513460A4604461946FFF793
:10016000F0FF204610BD10B5002200E0521C835C59
:100170008C5CA34201D1002BF8D1D8B2E1B2401A75
:1001800010BD10B5044600E0401C0378002BFBD1E5
:1001900000E0401C521E04D30B78491C0370002B56
:1001A000F7D100210170204610BD0000F0B51FB44A
:1001B00088B00B990998002448400999C00F49005C
:1001C00049080991C0070B990090490049080B9113
:1001D00009990898A64608431CD00B990A98084329
:1001E00018D0099801244000420D4800410D09989B
:1001F00024050003000B204309900B980003000B1B
:1002000020430B9050181C494018002201901446BE
:10021000104605E0002001460DB0F0BD032801DACC
:10022000034600E003239C46C11A0AAE0AE05F00C1
:1002300008ADED5B4F00F75B7D430027AA187C41BA
:10024000491C5B1E6145F2DD410004AB5A5221049A
:10025000120C0A43240C401C0828DFDB0198029092
:100260000099704601910090059B049A07990698A1
:1002700000F0BFF8D0E700000DFCFFFFF0B50C4622
:100280005C4085B0E40FE40703944C00002664084A
:1002900059009446490802460296224321D06246FC
:1002A0000A431ED06200570D4A000E032303550D6A
:1002B000012402462C492405781B1B0B360B4018E1
:1002C00023432643614600901C46501AB44103D391
:1002D0000098401C009002E0921800985B410028B2
:1002E00003DA0020014605B0F0BD00200121090518
:1002F0000746864611E064461D46141BB54106D3E9
:100300006546521BB341744607430C43A646CD07CE
:1003100040084908284392185B4105460D43EAD13D
:100320001046184313D060461946504071400843A8
:1003300006D06046101AB34106D20122002306E01F
:1003400000220123DB0702E00122D2435310009870
:1003500074460105381C6141029C039D00196941E6
:1003600000F03AF8BFE70000FD0300000EB5C21729
:10037000C10F5040CA0740180021054B029301925B
:1003800000910A460B4600F034F803B000BD0000AF
:10039000330400000EB505490291002100910A4680
:1003A0000B46019100F025F803B000BD33040000B6
:1003B00010B5002904DB0124E40740428C412146AA
:1003C000002B04DB1C460123DB075242A3418B4276
:1003D00000D1824210BD000010B5002B08DA0024C5
:1003E000401C614192185B411A4301D14008400012
:1003F00010BDF0B51FB482B005460C0003D008460E
:1004000000F0FCFE02E000F0F9FE20300246009011
:100410002146284600F030F9049B059A04460F4611
:1004200018431143084314D0184610431BD00098BA
:1004300040210A1A18460599FFF772FE05460E4636
:10044000009A0599049800F017F9084305D0012097
:1004500004E02046394607B0F0BD0020C11705432F
:100460000E432C43374300990E986305401A7905D3
:10047000E40A00220C43FD0A0A3002D5002001469E
:10048000E9E70105101969410C9C0D9D00196941AE
:10049000FFF7A2FFDFE70000F0B507460846584027
:1004A00087B0C00F049048000E4659004008490824
:1004B000BC1A884105D2384631461E4617460B46BF
:1004C00002465800400810434DD0300D03904005BF
:1004D0005900400D490D0590401A0290402873DAEA
:1004E00018030121000B09050843019004980092AC
:1004F000002806D01146019A4942002090410091FF
:100500000190029840210A1A0199009800F0B4F86D
:1005100005460C466B4607CB00F0BEF8C01971418A
:10052000039A0E0D0023D71756401A467A401643F9
:1005300044D0049A002A2DD0029A012A039A15DC8D
:100540001205C01A914101263605001C7141D20FD7
:10055000059ED2070093019202962A462346FFF792
:1005600048FF07B0F0BD38463146FAE71605234A82
:100570000F46B218C01AB74101210905001C4F41AE
:1005800000187F41114618187941E20F10436D1988
:10059000644113E0E2076D0815436408C207144381
:1005A000039A01261205C01A91413605001C7141BB
:1005B000CE07400830434908C01851412A46234617
:1005C000FFF70AFFCDE7FFE7049801224000C117BB
:1005D000121A00238B4104983146C417381AA141DE
:1005E000EEE730B40124E407634030BC54E730B494
:1005F0000124E407614030BC4EE700000000E0FF4A
:1006000070B54B005B0803430BD04B005C0D00261C
:1006100033466542B341D417AD1AA34102DB002033
:10062000014670BD12053018514170BD10B500294A
:1006300004DB0124E40740428C412146002B04DB0B
:100640001C460123DB075242A341994200D190424C
:1006500010BD0000064C0125064E05E0E36807CCFE
:100660002B430C3C98471034B442F7D3FFF72CFDD2
:10067000A0220008C022000810B5202A04DB014691
:10068000203A9140002010BD914020239C1A03463F
:10069000E3401943904010BD10B5202A06DBCB176C
:1006A0000846203A1041C1170B4306E00B461341A0
:1006B000D0402024A21A91400843194610BDFEB52F
:1006C00000231A461B1A8A4103DB0020014603B0AF
:1006D000F0BD4A000D0301212D0B0905520D0D43FC
:1006E000D10702D100186D41521E5110FF31FF3168
:1006F0000131002704463E463846009701910246E4
:10070000012100200905FFF70BFDC3197141F818FD
:10071000324684468E464A4161462846611A9041D7
:1007200004D36046241A954176461F462419009842
:100730006D41401C00903428E1DDF91930467041CC
:10074000091BA84103D20022D243134601E0002234
:10075000134601980105381C7141FFF73DFEB6E7CD
:10076000F8B504213B48FFF7F3FC3A4D0026ED1E97
:1007700004272E625FE022782169E068884202D176
:100780006F612E705BE0012A01D06F6157E0324B40
:100790001B5CA370401CE0606069002802D0012847
:1007A00049D115E0D8B20D2808D00A280DD0294922
:1007B0000122491E481CFFF7E4FC3CE027A000F0A2
:1007C000BBFC244800F0B8FC11E001206061D4E7D4
:1007D000D8B20D280BD00A280DD000F0A3FC206A57
:1007E0000A214843A17840183038206223E00A20CB
:1007F00000F098FC1FE01CA11648FFF7B4FC00288D
:100800001FD0144800F0CAFD124A7D3251621062B6
:10081000206B0C21401C4843E16940181349A0613A
:100820007F3008611248416901225202114341613F
:100830006069401C606168692C4602289BDB666128
:10084000F8BD0B484269012149028A4342610748C9
:100850000661EDE703000020BC0000204C494E4536
:10086000203434343A2000006F6666000074004083
:100870000008004831B500F00BF8009C0546601CEC
:1008800000D0641C00F004F8401BA042FAD338BD2D
:100890000148006870470000B0000020024801686D
:1008A000491C016070470000B000002010B50648E8
:1008B0000168102211430160002000F007F800F0E9
:1008C00017F8002010BD00000020024010B50446BB
:1008D00000F0D0F87D21C900FFF70CFC00F000FB10
:1008E00000222146501E00F017F8002010BD000025
:1008F00008B508488169012211438161816911406D
:100900000091C26901040A43C261C06908400090B5
:1009100008BD00000010024010B500F0FBFA10BD49
:10092000F8B505464E480E460068C007C00FB042F5
:100930000AD24B4801684908490031430160006808
:10094000C007C00FB04270D12878464C800705D54B
:100950006068F0218843A968084360602878C00770
:1009600053D06868012817D0022818D0032819D05E
:1009700021688907002958DA6168890889000143DC
:100980006160FFF785FF69680746012913D00229D6
:100990001DD0032927D034E021688903EAE72168C4
:1009A0008901E7E7616BC903E4E7FFF771FFC11B4A
:1009B0002D48814223D860680007800F0128F4D1B8
:1009C00023E0FFF765FFC11B2748814217D8606805
:1009D0000007800F0228F4D117E0FFF759FFC11B71
:1009E000214881420BD860680007800F0328F4D1AA
:1009F0000BE0FFF74DFFC11B1B48814201D90320CB
:100A0000F8BD60680007800FF3D115480168C90779
:100A1000C90FB1420BD9016849084900314301604F
:100A20000068C007C00FB04201D00120F8BD28788F
:100A3000400706D56068072109028843E968084332
:100A4000606000F01DF86168084A0906090F515CF2
:100A5000C840074908600020FFF738FF0020F8BDB4
:100A6000002002400010024088130000FC21000812
:100A7000B40000200148006870470000B400002066
:100A800030B516A30FCB89B06C460FC417A30FCB9C
:100A90000FC41A494A680C20144604401848042C14
:100AA00005D0184B082C04D00C2C00D1184609B0E6
:100AB00030BD9402240F6D462C5DC96A04AD090750
:100AC000090FD203695C920F022A02D0032A00D1D7
:100AD0001846FFF70FFB6043E9E700000203040537
:100AE000060708090A0B0C0D0E0F10100102030473
:100AF00005060708090A0B0C0D0E0F100010024026
:100B000000127A00006CDC02FEB504460078F04E5C
:100B1000F04DC00748D068680007800F01281FD03B
:100B200068680007800F022804D16868C003800F3E
:100B3000022815D06168012919D0012080040029FC
:100B400001D0052917D02968B1432960296881435C
:100B50002960606800281BD0FFF79AFE074613E063
:100B60002868800320D56068002876D01CE02868BB
:100B700030432860EDE7296801432960F7E7FFF774
:100B800087FEC01B642869D828688003F7D50BE06E
:100B9000FFF77EFE074604E0FFF77AFEC01B6428DD
:100BA000F1D828688003F7D4207880073ED568689C
:100BB0000007800F14D068680007800F022804D156
:100BC0006868C003800F01280AD0E0680028286800
:100BD0001DD0012108432860FFF75AFE07460BE0AD
:100BE000286880070BD5E068012836D107E0FFF7B9
:100BF0004FFEC01B0228C6D828688007F7D5286892
:100C0000F82188432169C900084328600EE04008A4
:100C100040002860FFF73CFE074604E0FFF738FE7F
:100C2000C01B0228AFD828688007F7D420780007B7
:100C300024D5E0690028686A11D001210843686260
:100C4000FFF726FE074604E0FFF722FEC01B02283E
:100C500099D8686A8007F7D510E036E1D1E04008FE
:100C600040006862FFF714FE074604E0FFF710FE3D
:100C7000C01B022887D8686A8007F7D42078042729
:100C80004007002861DA00200190E869C00008D41C
:100C9000E969B8060143E961E96901400120009171
:100CA00001908D480168C90511D40168821511436E
:100CB0000160FFF7EDFD009005E0FFF7E9FD009909
:100CC000401A642897D884480068C005F5D5A06804
:100CD00001280AD0002801D0052811D0286A400830
:100CE00040002862286AB84302E0286A01210843CC
:100CF0002862A068002812D0FFF7CAFD00900AE021
:100D0000286A38432862F0E7FFF7C2FD0099411ACC
:100D10007248814275D8286A8007F5D50DE0FFF743
:100D2000B7FD009006E0FFF7B3FD0099411A6B484C
:100D3000814266D8286A8007F5D40198002804D03B
:100D4000E969012000078143E9612078C00635D5B3
:100D5000606901280CD0401D686B24D0384368635B
:100D6000686B400840006863FFF792FD074622E089
:100D7000686B38436863686B012108436863FFF759
:100D800087FD074604E0FFF783FDC01B022838D823
:100D9000686B8007F7D5686BF8218843A169C900A3
:100DA000084368630AE0B8436863F4E7FFF770FD3F
:100DB000C01B022825D8686B8007F7D420788006EE
:100DC00037D568680007800F032813D068680007CC
:100DD000800F022804D16868C003800F032809D05F
:100DE000206A0028686B16D030436863FFF750FD17
:100DF00006460CE0686BC0031BD5206A012864D14D
:100E000017E05BE0FFF744FD801B022856D8686BB3
:100E1000C003F7D50DE0B0436863FFF739FD064620
:100E200004E0FFF735FD801B022847D8686BC0033C
:100E3000F7D4606A002846D069680907890F02293B
:100E400043D0012636060228286805D0B043286022
:100E5000FFF71EFD044633E0B0432860FFF718FD9E
:100E6000074604E0FFF714FDC01B022826D82868B7
:100E70008001F7D4E86A216B000900010843E862A9
:100E8000A16AE06A084369687B22D2039143084360
:100E90006860286830432860FFF7FAFC044604E0E5
:100EA000FFF7F6FC001B022808D828688001F7D558
:100EB00009E0FFF7EDFC001B022801D90320FEBD6D
:100EC00028688001F5D40020FEBD0120FEBD000091
:100ED0000000010000100240007000408813000074
:100EE000094910B5401E884201D9012010BD074CA8
:100EF00060610321081F00F00DF80020A0610720A9
:100F00002061002010BD0000FFFFFF0000E000E0B6
:100F1000FEE770478307FF22DB0E9A408907090E20
:100F2000994000280BDA0007000F083883080848AA
:100F30009B001818C36993430B43C3617047830830
:100F400004489B001B1818689043084318607047BA
:100F500000ED00E000E400E070477047F8B53D4860
:100F600000260680851F468004276E6264E0227892
:100F70002169E068884202D16F612E7060E0012A29
:100F800001D06F615CE0344B1B5CA370401CE060DF
:100F90006069002802D001284ED115E0D8B20D2892
:100FA00008D00A280DD02B490122091F081DFFF780
:100FB000E8F841E029A000F0BFF8264800F0BCF8AE
:100FC00011E001206061D4E7D8B20D280BD00A28C7
:100FD0000DD000F0A7F8606A0A214843A1784018B4
:100FE0003038606228E00A2000F09CF824E01EA05F
:100FF00000F0A2F80A2000F095F81EA11548FFF7AE
:10100000B2F800281ED0134800F0C8F9114A7A320D
:10101000D1629062206B0C21401C4843E16940186A
:101020001549A0617F30C8611448416940221143CD
:1010300041616069401C606168692C46022896DB4A
:101040006661F8BD0D48426940218A4342610A4801
:10105000C661EEE706000020BC0000204C494E456A
:1010600020353034000000006C696E652035343363
:10107000000000006F666600007400400008004831
:1010800010B5FFF70BFC10BD10B592B034216846C7
:10109000FFF75EF800240F94022000900D940120C9
:1010A0000E94039010200994049010946846FFF762
:1010B0002BFD07200D900E940F94002110940DA885
:1010C000FFF72EFC12B010BD124801680122114337
:1010D00001604168104A1140416001680F4A1140A7
:1010E00001600168012292049143016041683F223E
:1010F000120491434160C16A09090901C162016B8F
:10110000074A11400163416B4908490041630021CE
:1011100081607047001002400CB8FF08FFFFF6FE28
:101120002CFEFCFF0349CA691206FCD50149203197
:10113000088170470048004010B50446074B06E0A0
:10114000986A205CFFF7EEFF986A401C9862986AE4
:10115000205C0028F4D1986210BD0000000000203F
:1011600010B5FFF7FDFA10A0FFF7E6FF1548FFF7EF
:10117000E3FF0A20FFF7D6FFFFF7F0FE114900203A
:10118000C91E487008A0FFF7D7FF0E48FFF7D4FF2D
:101190000DA0FFF7D1FF0B48C01CFFF7CDFF0A20C1
:1011A000FFF7C0FF10BD000043757272656E7420BA
:1011B0006E6F746573206172653A204E6F7465318D
:1011C0003A20000003000020204E6F7465323A2060
:1011D00000000000064882880748064B01695A54FF
:1011E000491C01610178002901D10121017070477A
:1011F00020480040BC000020000000202021020CFC
:1012000001D010211046020A01D010460839020907
:1012100001D01046091F820801D01046891E4208DD
:1012200001D0881E7047081A704730B47446641E97
:101230002578641CAB4200D21D46635D5B00E31859
:1012400030BC18474900CA020243100000D00420F5
:101250004A0D01D001221043044A490D914201D1A7
:1012600002210843012800D105207047FF07000034
:10127000F8B504464F1EC8000838211815461E460A
:10128000086849683A4606239A4310D02A463346EE
:10129000FEF78CFF3A46D200083AA3181A687F1E60
:1012A0005B68FFF7F9F806223B469343EED1022F25
:1012B00023D0042F11D0062F2FD12A463346FEF714
:1012C00075FFE36AA26AFFF7E7F82A463346FEF79E
:1012D0006DFF636A226AFFF7DFF82A463346FEF79E
:1012E00065FFE369A269FFF7D7F82A463346FEF7A0
:1012F0005DFF63692269FFF7CFF82A463346FEF7A0
:1013000055FFE368A268FFF7C7F82A463346FEF7A1
:101310004DFF63682268FFF7BFF8F8BD002210B5E3
:10132000134610460149FEF7A9FF10BD0000F03F2B
:1013300010B5FFF7B1F810BD002210B513461046E6
:101340001146FEF79BFF10BD10B50721024A002091
:101350000907FFF755F910BD01030000034A10B556
:1013600000201107FFF74CF910BD000001FDFFFF41
:1013700002E008C8121F08C1002AFAD1704770475E
:10138000002001E001C1121F002AFBD170470000BC
:101390000149086070470000B8000020F8B5054614
:1013A00059A0FFF7C9FE2878FFF7BCFE0A20FFF717
:1013B000B9FE2878594C41380300FFF736FF071073
:1013C0001205070A0C0E1400002000E00220E06164
:1013D0000CE00420FBE70520F9E70720F7E70920E8
:1013E000F5E70B20F3E74EA0FFF7A6FE6878232869
:1013F00003D1E069401CE061A87830382063FEF733
:10140000B5FF0F46454EE26901218907803613007A
:10141000FFF70BFF0C070F2A323A424A525A626A10
:10142000721A02463B46002000F0AAF9E36BA26B59
:1014300006E002463B46002000F0A2F9636C226CF5
:10144000FEF7B4FEF161B06137A0FFF775FE2846E4
:10145000FFF772FE0A20FFF765FE00203849F369A6
:10146000B269FEF70BFFF8BD02463B46002000F0D4
:1014700087F9E36CA26CE3E702463B46002000F0EC
:101480007FF9636D226DDBE702463B46002000F0EA
:1014900077F9E36DA26DD3E702463B46002000F0EA
:1014A0006FF9636E226ECBE702463B46002000F0E8
:1014B00067F9E36EA26EC3E702463B46002000F0E8
:1014C0005FF9636F226FBBE702463B46002000F0E6
:1014D00057F9E36FA26FB3E702463B46002000F0E6
:1014E0004FF90CCE083EABE702463B46002000F029
:1014F00047F9F368B268A3E702463B46002000F0D4
:101500003FF9736932699BE743757272656E746C5B
:10151000792072656164696E673A200000000020DE
:101520004552524F520000007265616473206F751E
:10153000742070726F7065726C793A200000000040
:101540000000F03FFFF7B2F9FFF79EFD7A484069CF
:101550000121490408437849486148690121C904C7
:101560000843754948614869012189040843724963
:101570004861C8690121890408436F49C861C86985
:101580004C042043C8616D480168552000036B4A34
:1015900001431160116842009143684A116051682B
:1015A0000F2292019143654A516091688143916095
:1015B000D068FF2109038843D06061480168052293
:1015C000520511430160416A1122920211434162A6
:1015D000FFF750FAE1214902FEF78CFD5949C86036
:1015E00008682D22104308605748012604605749B7
:1015F0000868FF2212029043E21310430860092496
:10160000E40620680321090208432060E068E060E6
:101610002068052108432060E068E060606960613F
:101620004B484168314341600168382211430160F1
:101630000168314301604168022739434160016814
:101640001204114301600168320411430160414DED
:1016500028780128FCD1286A0028686A03D06978B4
:10166000084319D020E0002803D0687800280AD069
:101670001AE06E7038A0FFF75FFD0A20FFF752FDF9
:10168000FFF76EFD10E038A0FFF756FD0A20FFF7C8
:1016900049FDFFF765F807E036A0FFF74DFD0A208A
:1016A000FFF740FDFFF75AFC2A48C01C00786F285E
:1016B000286A2ED0401E286260697040606125490A
:1016C0008031086A496A00F07DFD606970406061A0
:1016D00020498031086A496A00F074FD1D48801D68
:1016E00000786F28686A1ED0401E68626069784082
:1016F000606118498031886AC96A00F063FD6069D9
:101700007840606113498031886AC96A00F05AFDE7
:101710009EE7401E28620120FFF7ACF86069400890
:1017200040006061DAE7401E68620120FFF7A2F81E
:101730006069B84360618BE7001002400008004810
:10174000000400480048004000E100E01CE400E024
:101750000074004000000020726561642074776F9F
:10176000206E6F746573000072656164206E6F7423
:101770006520310072656164206E6F7465203200EF
:10178000F0B51FB496B084460C460246199D1898D1
:101790000390490068006300490840080193002A4B
:1017A00001D0012600E000269E19FE4BF6185B10C2
:1017B0009E422BD36E00039F0296002F00D001277C
:1017C000F719F84EF84BBE199E421FD3039E0346ED
:1017D000F64F334309D03B469C4201D1002A04D046
:1017E000019B002A05D0012604E0002039461BB0E9
:1017F000F0BD00269E19EE4B9E4207D8039F029E25
:10180000002F00D00127F6199E4207D92B466046CB
:101810002146189AFFF78CFD1BB0F0BD0023002C69
:1018200029DAE44EB04226DAE34EB04201DB02236D
:1018300021E0DE4EB0421EDBE04E070DBE19142E35
:1018400009DD3427BF1B039EFE400196BE40039F67
:10185000BE420BD00FE0039F002F0CD11427BF1BFB
:101860000646FE400196BE40864204D1019BDE073B
:10187000F60F02239B1B0E46164318D1002D16DAD5
:10188000002C03D0022B01D0012B06D00220FFF741
:101890007FFDFFF743FD1BB0F0BD0220FFF778FD91
:1018A000FFF73CFD0122D20751401BB0F0BD039E63
:1018B000002E61D1BF4EB04220D1C148844201D137
:1018C000002A08D0B948814209DB002D10DB1898A6
:1018D00029461BB0F0BD0020B4491BB0F0BD002D5F
:1018E00006DA01222946D207189851401BB0F0BDF4
:1018F000B4497944086849681BB0F0BDAB4FB842A1
:1019000025D1002D1FDA002904D0B14212D1002ABE
:1019100009D018E0002A72D1A649E20F0020D207B0
:1019200011431BB0F0BD0020E20F0146D207114366
:101930001BB0F0BDB14206DA234600203946FEF75F
:101940009DFC1BB0F0BD104621461BB0F0BDB1425E
:1019500012DA0126B607B54203D1234610461946CE
:10196000FEE3994EB54207D1261E05DB10463146EF
:1019700000F004FC1BB0F0BD67007F081646002A8B
:1019800040D100290AD08B4A914229D1002C0EDD8A
:10199000002D1CDB002011461BB0F0BD022B16D021
:1019A000002C14D0012B12D1002C14DB0FE0002CE2
:1019B00028DA002D09DB012B03D000207D491BB064
:1019C000F0BD002081491BB0F0BD012B03D00020E9
:1019D00001461BB0F0BD00200121C9071BB0F0BDBE
:1019E000724A91420ED1002C01DA002B17D0022B43
:1019F00006D00020C043FEF7B9FC1BB0F0BD90E25A
:101A00000120F8E7E217521C94461A4307D000223F
:101A10000892664C62465B1E1A4307D009E001201B
:101A2000FFF7B6FCFFF788FC1BB0F0BD0022644C4A
:101A30000892674A90427DDD664B674A98421FDDF7
:101A4000914202DC002D05DB4DE05848814217DB56
:101A5000002D48DD0220FFF79BFCFFF775FC0546D3
:101A60000E460022534B21460898FEF79FFB08467E
:101A700071004908C00FC007014328461BB0F0BDE4
:101A8000914215DA002D2EDA0220FFF781FCFFF7D4
:101A90005BFC05460E460022464B21460898FEF7A1
:101AA00085FB72005208C80FC0070243114617E0B9
:101AB0003E4B994223DD002D15DD0220FFF768FC27
:101AC000FFF742FC05460E4600223A4B2146089895
:101AD000FEF76CFB084671004908C00FC0070143C0
:101AE00028461BB0F0BD0220FFF752FCFFF736FC82
:101AF00049004908E20FD20711431BB0F0BD002294
:101B000030463946FEF76DFD012205460E46D243AA
:101B1000FEF776FD314A324BFEF769FD2A46334621
:101B2000FEF744FB0022284BFEF761FD07462A46DC
:101B3000334600E064E0039110461946FEF736FB99
:101B40003A46039BFEF732FB0746032209915207F0
:101B5000244B28463146FEF729FB07910C90224A78
:101B6000204B38460999FEF721FB074601911F4A91
:101B70001F4B28463146FEF719FB3A46019BFEF7FC
:101B800030FD07460B460246099107990C98FEF76F
:101B900083FC00250E462846079B0C9AFEF721FD84
:101BA0003A4627E0FFFF1F00FFFF0F000000F03F55
:101BB0000000E0FF0000F07F0000404301FCFFFF59
:101BC0000000F0BFA20900000000E03F0000F0FFAD
:101BD0000000E0410000F043FFFFEF3F5555555531
:101BE0005555D53F4715F73FFE822B6544DF5DF81D
:101BF0000BAE543E099BFEF7FAFC02460B4652E13F
:101C0000012500202D05A94207DA35223046394644
:101C1000FEF7F6FC06463420C0430A151218FE48AB
:101C2000101803900803FD49000B01430F46FC49BF
:101C3000884201DC002003E0FA49884202DA0120F0
:101C4000119005E0002011900398401C7F1B039029
:101C500011980597C200F4480F92784480184368A1
:101C60000268394630460D930292FEF7BAFC07919E
:101C70000C9030460D9B029A0599FEF70DFC02462A
:101C80000B460020E549FEF7F9FA09910490079BFD
:101C90000C9AFEF78BFA129000201090E3480D4644
:101CA000784400680E900121781049070843119983
:101CB0000D9B890440180121C90447183946029A2E
:101CC0000E98FEF78EFC3246059BFEF790FC02460E
:101CD0000B4629461098FEF769FA064602913B46E4
:101CE00029460E9A1098FEF761FA079B0C9AFEF7A8
:101CF0007EFC3246029BFEF774FC099B049AFEF7B9
:101D000055FA0591129A0A902B4610461946FEF78D
:101D10004DFA06460246C6480F460B460621784451
:101D2000FFF7A6FA32463B4600910490104619464A
:101D3000FEF73CFA009B049AFEF738FA06460F4677
:101D40002B461946129A1098FEF7A6FB059B0A9A95
:101D5000FEF72CFA32463B46FEF79EFB109A07919F
:101D600004902B4610461946FEF720FAB14E002289
:101D7000334609910290FEF78FFB079B049AFEF70A
:101D80008BFB00200746024633460091FEF729FCF4
:101D9000099B029AFEF725FC079B049AFEF727FC95
:101DA00006460D913A462946009B1098FEF7FEF92B
:101DB00007910C902B463046129A0D99FEF7F6F9D2
:101DC00005460E463A46009B05990A98FEF7EEF93D
:101DD00033462A46FEF760FB02460B46074609914A
:101DE00007990C98FEF758FB00250E462846079BDE
:101DF0000C9AFEF7F6FB3A46099BFEF7F8FB0746FE
:101E00000722099152078C4B31462846FEF7CEF93E
:101E100007910090894A884B38460999FEF7C6F920
:101E200007460191864A874B31462846FEF7BEF9A0
:101E30003A46019BFEF730FB834B7B440F9A9B187D
:101E40001A685B68FEF728FB029009910398FEF779
:101E50008DFA05910490099B029A07990098FEF764
:101E60001BFB7A4B7B440F9A9B181A685B681746DA
:101E70000393FEF711FB059B049AFEF70DFB0E463C
:101E80002846059B049AFEF7ACFB3A46039BFEF7F7
:101E9000A8FB079B009AFEF7A4FB099B029AFEF79A
:101EA000A6FB02460B46199900200C900F46189885
:101EB000FEF77CF9029104903B460C9A1999189808
:101EC000FEF78FFB2A463346FEF770F9029B049A11
:101ED000FEF7E2FA09910E902A46334639460C98ED
:101EE000FEF764F906460F46099B0E9AFEF7D4FAF0
:101EF000574A0D46914220DB5242AA18024310D1A4
:101F000032463B46FEF76DFB04900391514A524B1B
:101F100009990E98FEF7C0FA039B049AFEF786FB18
:101F20001ED20220FFF734FAFFF70EFA49004908E3
:101F3000E20FD20711431BB0F0BD6A00474B5208B5
:101F40009A420DD3464AAA18024300D0CBE5324646
:101F50003B46FEF746FB099B0E9AFEF767FBF5D959
:101F60006800002340082C490393020D3D4B521892
:101F7000984223DD01200005521CD0404219500038
:101F8000400D401838497944096813468C46374952
:101F9000C1408B4312030121120B09055118142271
:101FA000101AC1400391002D01DA484203906246A5
:101FB00030463946FEF715FB06460F4632463B468D
:101FC00009990E98FEF768FA00252A46284B2846FC
:101FD0000591FEF7EBF807910C90264A264B284610
:101FE0000599FEF7E3F80091029032463B462846F9
:101FF0000599FEF7F6FA099B0E9AFEF7F8FA1F4AC2
:102000001F4BFEF7D3F8009B029AFEF745FA0746EE
:102010000B460246099135E001FCFFFF0000F03F4E
:102020008E9803007AB60B00B2050000F40500009C
:102030001E0500000000084009C7EE3FFD033ADC22
:10204000F5015B14E02F3EBEF2030000B803000070
:1020500000009040FE822B654715973C00CC9040D5
:1020600000346F3F0000E03F0E030000FFFF0F0051
:10207000432EE63F396CA80C615C20BEEF39FAFEB6
:10208000422EE63F07990C98FEF706FA05460E46E3
:10209000079B0C9AFEF7A5FA3A46099BFEF7A7FAAA
:1020A00009912A4633460E9010461946FEF77EF8EF
:1020B000074602462F480B46059105217844FFF755
:1020C000D7F83A46059BFEF771F82A463346FEF7E5
:1020D0008EFA0746019128463146099B0E9AFEF773
:1020E00065F8099B0E9AFEF7D7F9012304910C902D
:1020F00000229B0738460199FEF773FA05910E906E
:102100003A4628463146019BFEF750F8059B0E9A49
:10211000FEF7B4F8049B0C9AFEF763FA2A4633469E
:10212000FEF75FFA0022144BFEF761FA06460398A9
:102130000D46000541190915002912DC30462946D3
:10214000039AFEF75DFAFFF77DF8042801D1FFF747
:1021500005F930462946039AFEF752FA064601E091
:1021600004E029180B46324621460898FEF71EF86F
:102170001BB0F0BDB00100000000F03FF8B506460E
:102180000C46FEF79CFA051E0F4600D001200143C5
:1021900049000B484908411AC90F0DD0002E01D043
:1021A000012100E000210C4361004908401AC00FE2
:1021B00002D10120FFF7ECF828463946F8BD0000AF
:1021C0000000F07FF8B50B4C0B4B0022FDF7EEFF43
:1021D0000E46054602E0E06A401CE062E06AFEF757
:1021E000D9F82A463346FEF7E3F8F4D30020E0623C
:1021F000F8BD0000000000200088C340000000007F
:1022000000000000010203040607080900000000A6
:10221000000000000000F03F000000000000F83F58
:1022200000000000000000000000004003B8E23F92
:10223000000000000000000006D0CF43EBFD4C3E44
:10224000033333333333E33FFFAB6FDBB66DDB3F39
:102250004D268F515555D53F01411DA96074D13F81
:1022600065DBC9934A86CD3FEF4E454A287ECA3F7B
:102270003E5555555555C53F93BDBE166CC166BFFD
:102280002CDE25AF6A56113FF16BD2C541BDBBBEF6
:10229000D0A4BE726937663E000000000000000056
:1022A000C022000800000020BC00000070130008DD
:1022B0007C230008BC000020DC090000801300081B
:1022C000000000000000000000000000000000000E
:1022D00000000000000000000000000000000000FE
:1022E00000000000000000000000000000000000EE
:1022F00000000000000000009A9999999959304017
:1023000052B81E85EB5131409A99999999593240AA
:1023100033333333337333409A99999999993440CD
:1023200014AE47E17AD435401F85EB51B81E3740D3
:102330000000000000803840F6285C8FC2F539406C
:102340000000000000803B40A4703D0AD7233D40C0
:102350001F85EB51B8DE3E40000000000000000089
:10236000000000000000000000000000000000006D
:0C2370000000000000127A0000000000D5
:04000005080000C12E
:00000001FF
